{
  "_format": "hh-sol-artifact-1",
  "contractName": "MyTokenVotes",
  "sourceName": "contracts/ERC20Votes.sol",
  "abi": [
    {
      "inputs": [],
      "stateMutability": "nonpayable",
      "type": "constructor"
    },
    {
      "anonymous": false,
      "inputs": [
        {
          "indexed": true,
          "internalType": "address",
          "name": "owner",
          "type": "address"
        },
        {
          "indexed": true,
          "internalType": "address",
          "name": "spender",
          "type": "address"
        },
        {
          "indexed": false,
          "internalType": "uint256",
          "name": "value",
          "type": "uint256"
        }
      ],
      "name": "Approval",
      "type": "event"
    },
    {
      "anonymous": false,
      "inputs": [
        {
          "indexed": true,
          "internalType": "address",
          "name": "delegator",
          "type": "address"
        },
        {
          "indexed": true,
          "internalType": "address",
          "name": "fromDelegate",
          "type": "address"
        },
        {
          "indexed": true,
          "internalType": "address",
          "name": "toDelegate",
          "type": "address"
        }
      ],
      "name": "DelegateChanged",
      "type": "event"
    },
    {
      "anonymous": false,
      "inputs": [
        {
          "indexed": true,
          "internalType": "address",
          "name": "delegate",
          "type": "address"
        },
        {
          "indexed": false,
          "internalType": "uint256",
          "name": "previousBalance",
          "type": "uint256"
        },
        {
          "indexed": false,
          "internalType": "uint256",
          "name": "newBalance",
          "type": "uint256"
        }
      ],
      "name": "DelegateVotesChanged",
      "type": "event"
    },
    {
      "anonymous": false,
      "inputs": [
        {
          "indexed": true,
          "internalType": "bytes32",
          "name": "role",
          "type": "bytes32"
        },
        {
          "indexed": true,
          "internalType": "bytes32",
          "name": "previousAdminRole",
          "type": "bytes32"
        },
        {
          "indexed": true,
          "internalType": "bytes32",
          "name": "newAdminRole",
          "type": "bytes32"
        }
      ],
      "name": "RoleAdminChanged",
      "type": "event"
    },
    {
      "anonymous": false,
      "inputs": [
        {
          "indexed": true,
          "internalType": "bytes32",
          "name": "role",
          "type": "bytes32"
        },
        {
          "indexed": true,
          "internalType": "address",
          "name": "account",
          "type": "address"
        },
        {
          "indexed": true,
          "internalType": "address",
          "name": "sender",
          "type": "address"
        }
      ],
      "name": "RoleGranted",
      "type": "event"
    },
    {
      "anonymous": false,
      "inputs": [
        {
          "indexed": true,
          "internalType": "bytes32",
          "name": "role",
          "type": "bytes32"
        },
        {
          "indexed": true,
          "internalType": "address",
          "name": "account",
          "type": "address"
        },
        {
          "indexed": true,
          "internalType": "address",
          "name": "sender",
          "type": "address"
        }
      ],
      "name": "RoleRevoked",
      "type": "event"
    },
    {
      "anonymous": false,
      "inputs": [
        {
          "indexed": true,
          "internalType": "address",
          "name": "from",
          "type": "address"
        },
        {
          "indexed": true,
          "internalType": "address",
          "name": "to",
          "type": "address"
        },
        {
          "indexed": false,
          "internalType": "uint256",
          "name": "value",
          "type": "uint256"
        }
      ],
      "name": "Transfer",
      "type": "event"
    },
    {
      "inputs": [],
      "name": "DEFAULT_ADMIN_ROLE",
      "outputs": [
        {
          "internalType": "bytes32",
          "name": "",
          "type": "bytes32"
        }
      ],
      "stateMutability": "view",
      "type": "function"
    },
    {
      "inputs": [],
      "name": "DOMAIN_SEPARATOR",
      "outputs": [
        {
          "internalType": "bytes32",
          "name": "",
          "type": "bytes32"
        }
      ],
      "stateMutability": "view",
      "type": "function"
    },
    {
      "inputs": [],
      "name": "MINTER_ROLE",
      "outputs": [
        {
          "internalType": "bytes32",
          "name": "",
          "type": "bytes32"
        }
      ],
      "stateMutability": "view",
      "type": "function"
    },
    {
      "inputs": [
        {
          "internalType": "address",
          "name": "owner",
          "type": "address"
        },
        {
          "internalType": "address",
          "name": "spender",
          "type": "address"
        }
      ],
      "name": "allowance",
      "outputs": [
        {
          "internalType": "uint256",
          "name": "",
          "type": "uint256"
        }
      ],
      "stateMutability": "view",
      "type": "function"
    },
    {
      "inputs": [
        {
          "internalType": "address",
          "name": "spender",
          "type": "address"
        },
        {
          "internalType": "uint256",
          "name": "amount",
          "type": "uint256"
        }
      ],
      "name": "approve",
      "outputs": [
        {
          "internalType": "bool",
          "name": "",
          "type": "bool"
        }
      ],
      "stateMutability": "nonpayable",
      "type": "function"
    },
    {
      "inputs": [
        {
          "internalType": "address",
          "name": "account",
          "type": "address"
        }
      ],
      "name": "balanceOf",
      "outputs": [
        {
          "internalType": "uint256",
          "name": "",
          "type": "uint256"
        }
      ],
      "stateMutability": "view",
      "type": "function"
    },
    {
      "inputs": [
        {
          "internalType": "address",
          "name": "account",
          "type": "address"
        },
        {
          "internalType": "uint32",
          "name": "pos",
          "type": "uint32"
        }
      ],
      "name": "checkpoints",
      "outputs": [
        {
          "components": [
            {
              "internalType": "uint32",
              "name": "fromBlock",
              "type": "uint32"
            },
            {
              "internalType": "uint224",
              "name": "votes",
              "type": "uint224"
            }
          ],
          "internalType": "struct ERC20Votes.Checkpoint",
          "name": "",
          "type": "tuple"
        }
      ],
      "stateMutability": "view",
      "type": "function"
    },
    {
      "inputs": [],
      "name": "decimals",
      "outputs": [
        {
          "internalType": "uint8",
          "name": "",
          "type": "uint8"
        }
      ],
      "stateMutability": "view",
      "type": "function"
    },
    {
      "inputs": [
        {
          "internalType": "address",
          "name": "spender",
          "type": "address"
        },
        {
          "internalType": "uint256",
          "name": "subtractedValue",
          "type": "uint256"
        }
      ],
      "name": "decreaseAllowance",
      "outputs": [
        {
          "internalType": "bool",
          "name": "",
          "type": "bool"
        }
      ],
      "stateMutability": "nonpayable",
      "type": "function"
    },
    {
      "inputs": [
        {
          "internalType": "address",
          "name": "delegatee",
          "type": "address"
        }
      ],
      "name": "delegate",
      "outputs": [],
      "stateMutability": "nonpayable",
      "type": "function"
    },
    {
      "inputs": [
        {
          "internalType": "address",
          "name": "delegatee",
          "type": "address"
        },
        {
          "internalType": "uint256",
          "name": "nonce",
          "type": "uint256"
        },
        {
          "internalType": "uint256",
          "name": "expiry",
          "type": "uint256"
        },
        {
          "internalType": "uint8",
          "name": "v",
          "type": "uint8"
        },
        {
          "internalType": "bytes32",
          "name": "r",
          "type": "bytes32"
        },
        {
          "internalType": "bytes32",
          "name": "s",
          "type": "bytes32"
        }
      ],
      "name": "delegateBySig",
      "outputs": [],
      "stateMutability": "nonpayable",
      "type": "function"
    },
    {
      "inputs": [
        {
          "internalType": "address",
          "name": "account",
          "type": "address"
        }
      ],
      "name": "delegates",
      "outputs": [
        {
          "internalType": "address",
          "name": "",
          "type": "address"
        }
      ],
      "stateMutability": "view",
      "type": "function"
    },
    {
      "inputs": [
        {
          "internalType": "uint256",
          "name": "blockNumber",
          "type": "uint256"
        }
      ],
      "name": "getPastTotalSupply",
      "outputs": [
        {
          "internalType": "uint256",
          "name": "",
          "type": "uint256"
        }
      ],
      "stateMutability": "view",
      "type": "function"
    },
    {
      "inputs": [
        {
          "internalType": "address",
          "name": "account",
          "type": "address"
        },
        {
          "internalType": "uint256",
          "name": "blockNumber",
          "type": "uint256"
        }
      ],
      "name": "getPastVotes",
      "outputs": [
        {
          "internalType": "uint256",
          "name": "",
          "type": "uint256"
        }
      ],
      "stateMutability": "view",
      "type": "function"
    },
    {
      "inputs": [
        {
          "internalType": "bytes32",
          "name": "role",
          "type": "bytes32"
        }
      ],
      "name": "getRoleAdmin",
      "outputs": [
        {
          "internalType": "bytes32",
          "name": "",
          "type": "bytes32"
        }
      ],
      "stateMutability": "view",
      "type": "function"
    },
    {
      "inputs": [
        {
          "internalType": "address",
          "name": "account",
          "type": "address"
        }
      ],
      "name": "getVotes",
      "outputs": [
        {
          "internalType": "uint256",
          "name": "",
          "type": "uint256"
        }
      ],
      "stateMutability": "view",
      "type": "function"
    },
    {
      "inputs": [
        {
          "internalType": "bytes32",
          "name": "role",
          "type": "bytes32"
        },
        {
          "internalType": "address",
          "name": "account",
          "type": "address"
        }
      ],
      "name": "grantRole",
      "outputs": [],
      "stateMutability": "nonpayable",
      "type": "function"
    },
    {
      "inputs": [
        {
          "internalType": "bytes32",
          "name": "role",
          "type": "bytes32"
        },
        {
          "internalType": "address",
          "name": "account",
          "type": "address"
        }
      ],
      "name": "hasRole",
      "outputs": [
        {
          "internalType": "bool",
          "name": "",
          "type": "bool"
        }
      ],
      "stateMutability": "view",
      "type": "function"
    },
    {
      "inputs": [
        {
          "internalType": "address",
          "name": "spender",
          "type": "address"
        },
        {
          "internalType": "uint256",
          "name": "addedValue",
          "type": "uint256"
        }
      ],
      "name": "increaseAllowance",
      "outputs": [
        {
          "internalType": "bool",
          "name": "",
          "type": "bool"
        }
      ],
      "stateMutability": "nonpayable",
      "type": "function"
    },
    {
      "inputs": [
        {
          "internalType": "address",
          "name": "to",
          "type": "address"
        },
        {
          "internalType": "uint256",
          "name": "amount",
          "type": "uint256"
        }
      ],
      "name": "mint",
      "outputs": [],
      "stateMutability": "nonpayable",
      "type": "function"
    },
    {
      "inputs": [],
      "name": "name",
      "outputs": [
        {
          "internalType": "string",
          "name": "",
          "type": "string"
        }
      ],
      "stateMutability": "view",
      "type": "function"
    },
    {
      "inputs": [
        {
          "internalType": "address",
          "name": "owner",
          "type": "address"
        }
      ],
      "name": "nonces",
      "outputs": [
        {
          "internalType": "uint256",
          "name": "",
          "type": "uint256"
        }
      ],
      "stateMutability": "view",
      "type": "function"
    },
    {
      "inputs": [
        {
          "internalType": "address",
          "name": "account",
          "type": "address"
        }
      ],
      "name": "numCheckpoints",
      "outputs": [
        {
          "internalType": "uint32",
          "name": "",
          "type": "uint32"
        }
      ],
      "stateMutability": "view",
      "type": "function"
    },
    {
      "inputs": [
        {
          "internalType": "address",
          "name": "owner",
          "type": "address"
        },
        {
          "internalType": "address",
          "name": "spender",
          "type": "address"
        },
        {
          "internalType": "uint256",
          "name": "value",
          "type": "uint256"
        },
        {
          "internalType": "uint256",
          "name": "deadline",
          "type": "uint256"
        },
        {
          "internalType": "uint8",
          "name": "v",
          "type": "uint8"
        },
        {
          "internalType": "bytes32",
          "name": "r",
          "type": "bytes32"
        },
        {
          "internalType": "bytes32",
          "name": "s",
          "type": "bytes32"
        }
      ],
      "name": "permit",
      "outputs": [],
      "stateMutability": "nonpayable",
      "type": "function"
    },
    {
      "inputs": [
        {
          "internalType": "bytes32",
          "name": "role",
          "type": "bytes32"
        },
        {
          "internalType": "address",
          "name": "account",
          "type": "address"
        }
      ],
      "name": "renounceRole",
      "outputs": [],
      "stateMutability": "nonpayable",
      "type": "function"
    },
    {
      "inputs": [
        {
          "internalType": "bytes32",
          "name": "role",
          "type": "bytes32"
        },
        {
          "internalType": "address",
          "name": "account",
          "type": "address"
        }
      ],
      "name": "revokeRole",
      "outputs": [],
      "stateMutability": "nonpayable",
      "type": "function"
    },
    {
      "inputs": [
        {
          "internalType": "bytes4",
          "name": "interfaceId",
          "type": "bytes4"
        }
      ],
      "name": "supportsInterface",
      "outputs": [
        {
          "internalType": "bool",
          "name": "",
          "type": "bool"
        }
      ],
      "stateMutability": "view",
      "type": "function"
    },
    {
      "inputs": [],
      "name": "symbol",
      "outputs": [
        {
          "internalType": "string",
          "name": "",
          "type": "string"
        }
      ],
      "stateMutability": "view",
      "type": "function"
    },
    {
      "inputs": [],
      "name": "totalSupply",
      "outputs": [
        {
          "internalType": "uint256",
          "name": "",
          "type": "uint256"
        }
      ],
      "stateMutability": "view",
      "type": "function"
    },
    {
      "inputs": [
        {
          "internalType": "address",
          "name": "to",
          "type": "address"
        },
        {
          "internalType": "uint256",
          "name": "amount",
          "type": "uint256"
        }
      ],
      "name": "transfer",
      "outputs": [
        {
          "internalType": "bool",
          "name": "",
          "type": "bool"
        }
      ],
      "stateMutability": "nonpayable",
      "type": "function"
    },
    {
      "inputs": [
        {
          "internalType": "address",
          "name": "from",
          "type": "address"
        },
        {
          "internalType": "address",
          "name": "to",
          "type": "address"
        },
        {
          "internalType": "uint256",
          "name": "amount",
          "type": "uint256"
        }
      ],
      "name": "transferFrom",
      "outputs": [
        {
          "internalType": "bool",
          "name": "",
          "type": "bool"
        }
      ],
      "stateMutability": "nonpayable",
      "type": "function"
    }
  ],
  "bytecode": "0x6101406040523480156200001257600080fd5b506040518060400160405280600c81526020017f4d79546f6b656e566f7465730000000000000000000000000000000000000000815250806040518060400160405280600181526020017f31000000000000000000000000000000000000000000000000000000000000008152506040518060400160405280600c81526020017f4d79546f6b656e566f74657300000000000000000000000000000000000000008152506040518060400160405280600381526020017f4d544b0000000000000000000000000000000000000000000000000000000000815250816003908051906020019062000104929190620003c4565b5080600490805190602001906200011d929190620003c4565b50505060008280519060200120905060008280519060200120905060007f8b73c3c69bb8fe3d512ecc4cf759cc79239f7b179b0ffacaa9a75d522b39400f90508260e081815250508161010081815250504660a08181525050620001898184846200022360201b60201c565b608081815250503073ffffffffffffffffffffffffffffffffffffffff1660c08173ffffffffffffffffffffffffffffffffffffffff1660601b81525050806101208181525050505050505050620001eb6000801b336200025f60201b60201c565b6200021d7f9f2df0fed2c77648de5860a4cc508cd0818c85b8b8a1ab4ceeef8d981c8956a6336200025f60201b60201c565b620005b1565b6000838383463060405160200162000240959493929190620004ef565b6040516020818303038152906040528051906020012090509392505050565b6200027182826200035160201b60201c565b6200034d5760016005600084815260200190815260200160002060000160008373ffffffffffffffffffffffffffffffffffffffff1673ffffffffffffffffffffffffffffffffffffffff16815260200190815260200160002060006101000a81548160ff021916908315150217905550620002f2620003bc60201b60201c565b73ffffffffffffffffffffffffffffffffffffffff168173ffffffffffffffffffffffffffffffffffffffff16837f2f8788117e7eff1d82e926ec794901d17c78024a50270940304540a733656f0d60405160405180910390a45b5050565b60006005600084815260200190815260200160002060000160008373ffffffffffffffffffffffffffffffffffffffff1673ffffffffffffffffffffffffffffffffffffffff16815260200190815260200160002060009054906101000a900460ff16905092915050565b600033905090565b828054620003d2906200057b565b90600052602060002090601f016020900481019282620003f6576000855562000442565b82601f106200041157805160ff191683800117855562000442565b8280016001018555821562000442579182015b828111156200044157825182559160200191906001019062000424565b5b50905062000451919062000455565b5090565b5b808211156200047057600081600090555060010162000456565b5090565b6000819050919050565b620004898162000474565b82525050565b6000819050919050565b620004a4816200048f565b82525050565b600073ffffffffffffffffffffffffffffffffffffffff82169050919050565b6000620004d782620004aa565b9050919050565b620004e981620004ca565b82525050565b600060a0820190506200050660008301886200047e565b6200051560208301876200047e565b6200052460408301866200047e565b62000533606083018562000499565b620005426080830184620004de565b9695505050505050565b7f4e487b7100000000000000000000000000000000000000000000000000000000600052602260045260246000fd5b600060028204905060018216806200059457607f821691505b60208210811415620005ab57620005aa6200054c565b5b50919050565b60805160a05160c05160601c60e051610100516101205161440a620006046000396000611975015260006119b701526000611996015260006118cb015260006119210152600061194a015261440a6000f3fe608060405234801561001057600080fd5b50600436106101e55760003560e01c80636fcfff451161010f578063a457c2d7116100a2578063d539139311610071578063d539139314610616578063d547741f14610634578063dd62ed3e14610650578063f1127ed814610680576101e5565b8063a457c2d71461057e578063a9059cbb146105ae578063c3cda520146105de578063d505accf146105fa576101e5565b806391d14854116100de57806391d14854146104e257806395d89b41146105125780639ab24eb014610530578063a217fddf14610560576101e5565b80636fcfff451461042257806370a08231146104525780637ecebe00146104825780638e539e8c146104b2576101e5565b8063313ce567116101875780633a46b1a8116101565780633a46b1a81461038a57806340c10f19146103ba578063587cde1e146103d65780635c19a95c14610406576101e5565b8063313ce567146103025780633644e5151461032057806336568abe1461033e578063395093511461035a576101e5565b806318160ddd116101c357806318160ddd1461026857806323b872dd14610286578063248a9ca3146102b65780632f2ff15d146102e6576101e5565b806301ffc9a7146101ea57806306fdde031461021a578063095ea7b314610238575b600080fd5b61020460048036038101906101ff9190612c58565b6106b0565b6040516102119190612ca0565b60405180910390f35b61022261072a565b60405161022f9190612d54565b60405180910390f35b610252600480360381019061024d9190612e0a565b6107bc565b60405161025f9190612ca0565b60405180910390f35b6102706107df565b60405161027d9190612e59565b60405180910390f35b6102a0600480360381019061029b9190612e74565b6107e9565b6040516102ad9190612ca0565b60405180910390f35b6102d060048036038101906102cb9190612efd565b610818565b6040516102dd9190612f39565b60405180910390f35b61030060048036038101906102fb9190612f54565b610838565b005b61030a610859565b6040516103179190612fb0565b60405180910390f35b610328610862565b6040516103359190612f39565b60405180910390f35b61035860048036038101906103539190612f54565b610871565b005b610374600480360381019061036f9190612e0a565b6108f4565b6040516103819190612ca0565b60405180910390f35b6103a4600480360381019061039f9190612e0a565b61092b565b6040516103b19190612e59565b60405180910390f35b6103d460048036038101906103cf9190612e0a565b6109bf565b005b6103f060048036038101906103eb9190612fcb565b6109f8565b6040516103fd9190613007565b60405180910390f35b610420600480360381019061041b9190612fcb565b610a61565b005b61043c60048036038101906104379190612fcb565b610a75565b6040516104499190613041565b60405180910390f35b61046c60048036038101906104679190612fcb565b610ac9565b6040516104799190612e59565b60405180910390f35b61049c60048036038101906104979190612fcb565b610b11565b6040516104a99190612e59565b60405180910390f35b6104cc60048036038101906104c7919061305c565b610b61565b6040516104d99190612e59565b60405180910390f35b6104fc60048036038101906104f79190612f54565b610bb7565b6040516105099190612ca0565b60405180910390f35b61051a610c22565b6040516105279190612d54565b60405180910390f35b61054a60048036038101906105459190612fcb565b610cb4565b6040516105579190612e59565b60405180910390f35b610568610dc5565b6040516105759190612f39565b60405180910390f35b61059860048036038101906105939190612e0a565b610dcc565b6040516105a59190612ca0565b60405180910390f35b6105c860048036038101906105c39190612e0a565b610e43565b6040516105d59190612ca0565b60405180910390f35b6105f860048036038101906105f391906130b5565b610e66565b005b610614600480360381019061060f9190613142565b610f6a565b005b61061e6110ac565b60405161062b9190612f39565b60405180910390f35b61064e60048036038101906106499190612f54565b6110d0565b005b61066a600480360381019061066591906131e4565b6110f1565b6040516106779190612e59565b60405180910390f35b61069a60048036038101906106959190613250565b611178565b6040516106a79190613305565b60405180910390f35b60007f7965db0b000000000000000000000000000000000000000000000000000000007bffffffffffffffffffffffffffffffffffffffffffffffffffffffff1916827bffffffffffffffffffffffffffffffffffffffffffffffffffffffff19161480610723575061072282611288565b5b9050919050565b6060600380546107399061334f565b80601f01602080910402602001604051908101604052809291908181526020018280546107659061334f565b80156107b25780601f10610787576101008083540402835291602001916107b2565b820191906000526020600020905b81548152906001019060200180831161079557829003601f168201915b5050505050905090565b6000806107c76112f2565b90506107d48185856112fa565b600191505092915050565b6000600254905090565b6000806107f46112f2565b90506108018582856114c5565b61080c858585611551565b60019150509392505050565b600060056000838152602001908152602001600020600101549050919050565b61084182610818565b61084a816117d2565b61085483836117e6565b505050565b60006012905090565b600061086c6118c7565b905090565b6108796112f2565b73ffffffffffffffffffffffffffffffffffffffff168173ffffffffffffffffffffffffffffffffffffffff16146108e6576040517f08c379a00000000000000000000000000000000000000000000000000000000081526004016108dd906133f3565b60405180910390fd5b6108f082826119e1565b5050565b6000806108ff6112f2565b905061092081858561091185896110f1565b61091b9190613442565b6112fa565b600191505092915050565b600043821061096f576040517f08c379a0000000000000000000000000000000000000000000000000000000008152600401610966906134e4565b60405180910390fd5b6109b7600960008573ffffffffffffffffffffffffffffffffffffffff1673ffffffffffffffffffffffffffffffffffffffff16815260200190815260200160002083611ac3565b905092915050565b7f9f2df0fed2c77648de5860a4cc508cd0818c85b8b8a1ab4ceeef8d981c8956a66109e9816117d2565b6109f38383611bcf565b505050565b6000600860008373ffffffffffffffffffffffffffffffffffffffff1673ffffffffffffffffffffffffffffffffffffffff16815260200190815260200160002060009054906101000a900473ffffffffffffffffffffffffffffffffffffffff169050919050565b610a72610a6c6112f2565b82611bdd565b50565b6000610ac2600960008473ffffffffffffffffffffffffffffffffffffffff1673ffffffffffffffffffffffffffffffffffffffff16815260200190815260200160002080549050611cf7565b9050919050565b60008060008373ffffffffffffffffffffffffffffffffffffffff1673ffffffffffffffffffffffffffffffffffffffff168152602001908152602001600020549050919050565b6000610b5a600660008473ffffffffffffffffffffffffffffffffffffffff1673ffffffffffffffffffffffffffffffffffffffff168152602001908152602001600020611d4a565b9050919050565b6000438210610ba5576040517f08c379a0000000000000000000000000000000000000000000000000000000008152600401610b9c906134e4565b60405180910390fd5b610bb0600a83611ac3565b9050919050565b60006005600084815260200190815260200160002060000160008373ffffffffffffffffffffffffffffffffffffffff1673ffffffffffffffffffffffffffffffffffffffff16815260200190815260200160002060009054906101000a900460ff16905092915050565b606060048054610c319061334f565b80601f0160208091040260200160405190810160405280929190818152602001828054610c5d9061334f565b8015610caa5780601f10610c7f57610100808354040283529160200191610caa565b820191906000526020600020905b815481529060010190602001808311610c8d57829003601f168201915b5050505050905090565b600080600960008473ffffffffffffffffffffffffffffffffffffffff1673ffffffffffffffffffffffffffffffffffffffff16815260200190815260200160002080549050905060008114610d9c57600960008473ffffffffffffffffffffffffffffffffffffffff1673ffffffffffffffffffffffffffffffffffffffff168152602001908152602001600020600182610d509190613504565b81548110610d6157610d60613538565b5b9060005260206000200160000160049054906101000a90047bffffffffffffffffffffffffffffffffffffffffffffffffffffffff16610d9f565b60005b7bffffffffffffffffffffffffffffffffffffffffffffffffffffffff16915050919050565b6000801b81565b600080610dd76112f2565b90506000610de582866110f1565b905083811015610e2a576040517f08c379a0000000000000000000000000000000000000000000000000000000008152600401610e21906135d9565b60405180910390fd5b610e3782868684036112fa565b60019250505092915050565b600080610e4e6112f2565b9050610e5b818585611551565b600191505092915050565b83421115610ea9576040517f08c379a0000000000000000000000000000000000000000000000000000000008152600401610ea090613645565b60405180910390fd5b6000610f0b610f037fe48329057bfd03d55e49b547132e39cffd9c1820ad7b9d4c5307691425d15adf898989604051602001610ee89493929190613665565b60405160208183030381529060405280519060200120611d58565b858585611d72565b9050610f1681611d9d565b8614610f57576040517f08c379a0000000000000000000000000000000000000000000000000000000008152600401610f4e906136f6565b60405180910390fd5b610f618188611bdd565b50505050505050565b83421115610fad576040517f08c379a0000000000000000000000000000000000000000000000000000000008152600401610fa490613762565b60405180910390fd5b60007f6e71edae12b1b97f4d1f60370fef10105fa2faae0126114a169c64845d6126c9888888610fdc8c611d9d565b89604051602001610ff296959493929190613782565b604051602081830303815290604052805190602001209050600061101582611d58565b9050600061102582878787611d72565b90508973ffffffffffffffffffffffffffffffffffffffff168173ffffffffffffffffffffffffffffffffffffffff1614611095576040517f08c379a000000000000000000000000000000000000000000000000000000000815260040161108c9061382f565b60405180910390fd5b6110a08a8a8a6112fa565b50505050505050505050565b7f9f2df0fed2c77648de5860a4cc508cd0818c85b8b8a1ab4ceeef8d981c8956a681565b6110d982610818565b6110e2816117d2565b6110ec83836119e1565b505050565b6000600160008473ffffffffffffffffffffffffffffffffffffffff1673ffffffffffffffffffffffffffffffffffffffff16815260200190815260200160002060008373ffffffffffffffffffffffffffffffffffffffff1673ffffffffffffffffffffffffffffffffffffffff16815260200190815260200160002054905092915050565b611180612bbd565b600960008473ffffffffffffffffffffffffffffffffffffffff1673ffffffffffffffffffffffffffffffffffffffff1681526020019081526020016000208263ffffffff16815481106111d7576111d6613538565b5b906000526020600020016040518060400160405290816000820160009054906101000a900463ffffffff1663ffffffff1663ffffffff1681526020016000820160049054906101000a90047bffffffffffffffffffffffffffffffffffffffffffffffffffffffff167bffffffffffffffffffffffffffffffffffffffffffffffffffffffff167bffffffffffffffffffffffffffffffffffffffffffffffffffffffff1681525050905092915050565b60007f01ffc9a7000000000000000000000000000000000000000000000000000000007bffffffffffffffffffffffffffffffffffffffffffffffffffffffff1916827bffffffffffffffffffffffffffffffffffffffffffffffffffffffff1916149050919050565b600033905090565b600073ffffffffffffffffffffffffffffffffffffffff168373ffffffffffffffffffffffffffffffffffffffff16141561136a576040517f08c379a0000000000000000000000000000000000000000000000000000000008152600401611361906138c1565b60405180910390fd5b600073ffffffffffffffffffffffffffffffffffffffff168273ffffffffffffffffffffffffffffffffffffffff1614156113da576040517f08c379a00000000000000000000000000000000000000000000000000000000081526004016113d190613953565b60405180910390fd5b80600160008573ffffffffffffffffffffffffffffffffffffffff1673ffffffffffffffffffffffffffffffffffffffff16815260200190815260200160002060008473ffffffffffffffffffffffffffffffffffffffff1673ffffffffffffffffffffffffffffffffffffffff168152602001908152602001600020819055508173ffffffffffffffffffffffffffffffffffffffff168373ffffffffffffffffffffffffffffffffffffffff167f8c5be1e5ebec7d5bd14f71427d1e84f3dd0314c0f7b2291e5b200ac8c7c3b925836040516114b89190612e59565b60405180910390a3505050565b60006114d184846110f1565b90507fffffffffffffffffffffffffffffffffffffffffffffffffffffffffffffffff811461154b578181101561153d576040517f08c379a0000000000000000000000000000000000000000000000000000000008152600401611534906139bf565b60405180910390fd5b61154a84848484036112fa565b5b50505050565b600073ffffffffffffffffffffffffffffffffffffffff168373ffffffffffffffffffffffffffffffffffffffff1614156115c1576040517f08c379a00000000000000000000000000000000000000000000000000000000081526004016115b890613a51565b60405180910390fd5b600073ffffffffffffffffffffffffffffffffffffffff168273ffffffffffffffffffffffffffffffffffffffff161415611631576040517f08c379a000000000000000000000000000000000000000000000000000000000815260040161162890613ae3565b60405180910390fd5b61163c838383611dfb565b60008060008573ffffffffffffffffffffffffffffffffffffffff1673ffffffffffffffffffffffffffffffffffffffff168152602001908152602001600020549050818110156116c2576040517f08c379a00000000000000000000000000000000000000000000000000000000081526004016116b990613b75565b60405180910390fd5b8181036000808673ffffffffffffffffffffffffffffffffffffffff1673ffffffffffffffffffffffffffffffffffffffff16815260200190815260200160002081905550816000808573ffffffffffffffffffffffffffffffffffffffff1673ffffffffffffffffffffffffffffffffffffffff16815260200190815260200160002060008282546117559190613442565b925050819055508273ffffffffffffffffffffffffffffffffffffffff168473ffffffffffffffffffffffffffffffffffffffff167fddf252ad1be2c89b69c2b068fc378daa952ba7f163c4a11628f55a4df523b3ef846040516117b99190612e59565b60405180910390a36117cc848484611e00565b50505050565b6117e3816117de6112f2565b611e10565b50565b6117f08282610bb7565b6118c35760016005600084815260200190815260200160002060000160008373ffffffffffffffffffffffffffffffffffffffff1673ffffffffffffffffffffffffffffffffffffffff16815260200190815260200160002060006101000a81548160ff0219169083151502179055506118686112f2565b73ffffffffffffffffffffffffffffffffffffffff168173ffffffffffffffffffffffffffffffffffffffff16837f2f8788117e7eff1d82e926ec794901d17c78024a50270940304540a733656f0d60405160405180910390a45b5050565b60007f000000000000000000000000000000000000000000000000000000000000000073ffffffffffffffffffffffffffffffffffffffff163073ffffffffffffffffffffffffffffffffffffffff1614801561194357507f000000000000000000000000000000000000000000000000000000000000000046145b15611970577f000000000000000000000000000000000000000000000000000000000000000090506119de565b6119db7f00000000000000000000000000000000000000000000000000000000000000007f00000000000000000000000000000000000000000000000000000000000000007f0000000000000000000000000000000000000000000000000000000000000000611ead565b90505b90565b6119eb8282610bb7565b15611abf5760006005600084815260200190815260200160002060000160008373ffffffffffffffffffffffffffffffffffffffff1673ffffffffffffffffffffffffffffffffffffffff16815260200190815260200160002060006101000a81548160ff021916908315150217905550611a646112f2565b73ffffffffffffffffffffffffffffffffffffffff168173ffffffffffffffffffffffffffffffffffffffff16837ff6391f5c32d9c69d2a47ea670b442974b53935d1edc7fd64eb21e047a839171b60405160405180910390a45b5050565b6000808380549050905060005b81811015611b42576000611ae48284611ee7565b905084868281548110611afa57611af9613538565b5b9060005260206000200160000160009054906101000a900463ffffffff1663ffffffff161115611b2c57809250611b3c565b600181611b399190613442565b91505b50611ad0565b60008214611ba45784600183611b589190613504565b81548110611b6957611b68613538565b5b9060005260206000200160000160049054906101000a90047bffffffffffffffffffffffffffffffffffffffffffffffffffffffff16611ba7565b60005b7bffffffffffffffffffffffffffffffffffffffffffffffffffffffff169250505092915050565b611bd98282611f0d565b5050565b6000611be8836109f8565b90506000611bf584610ac9565b905082600860008673ffffffffffffffffffffffffffffffffffffffff1673ffffffffffffffffffffffffffffffffffffffff16815260200190815260200160002060006101000a81548173ffffffffffffffffffffffffffffffffffffffff021916908373ffffffffffffffffffffffffffffffffffffffff1602179055508273ffffffffffffffffffffffffffffffffffffffff168273ffffffffffffffffffffffffffffffffffffffff168573ffffffffffffffffffffffffffffffffffffffff167f3134e8a2e6d97e929a7e54011ea5485d7d196dd5f0ba4d4ef95803e8e3fc257f60405160405180910390a4611cf1828483611f9a565b50505050565b600063ffffffff8016821115611d42576040517f08c379a0000000000000000000000000000000000000000000000000000000008152600401611d3990613c07565b60405180910390fd5b819050919050565b600081600001549050919050565b6000611d6b611d656118c7565b83612193565b9050919050565b6000806000611d83878787876121c6565b91509150611d90816122d3565b8192505050949350505050565b600080600660008473ffffffffffffffffffffffffffffffffffffffff1673ffffffffffffffffffffffffffffffffffffffff1681526020019081526020016000209050611dea81611d4a565b9150611df5816124a8565b50919050565b505050565b611e0b8383836124be565b505050565b611e1a8282610bb7565b611ea957611e3f8173ffffffffffffffffffffffffffffffffffffffff1660146124e9565b611e4d8360001c60206124e9565b604051602001611e5e929190613cfb565b6040516020818303038152906040526040517f08c379a0000000000000000000000000000000000000000000000000000000008152600401611ea09190612d54565b60405180910390fd5b5050565b60008383834630604051602001611ec8959493929190613d35565b6040516020818303038152906040528051906020012090509392505050565b60006002828418611ef89190613db7565b828416611f059190613442565b905092915050565b611f178282612725565b611f1f612885565b7bffffffffffffffffffffffffffffffffffffffffffffffffffffffff16611f456107df565b1115611f86576040517f08c379a0000000000000000000000000000000000000000000000000000000008152600401611f7d90613e5a565b60405180910390fd5b611f94600a6128a9836128bf565b50505050565b8173ffffffffffffffffffffffffffffffffffffffff168373ffffffffffffffffffffffffffffffffffffffff1614158015611fd65750600081115b1561218e57600073ffffffffffffffffffffffffffffffffffffffff168373ffffffffffffffffffffffffffffffffffffffff16146120b45760008061205d600960008773ffffffffffffffffffffffffffffffffffffffff1673ffffffffffffffffffffffffffffffffffffffff168152602001908152602001600020612b37856128bf565b915091508473ffffffffffffffffffffffffffffffffffffffff167fdec2bacdd2f05b59de34da9b523dff8be42e5e38e818c82fdb0bae774387a72483836040516120a9929190613e7a565b60405180910390a250505b600073ffffffffffffffffffffffffffffffffffffffff168273ffffffffffffffffffffffffffffffffffffffff161461218d57600080612136600960008673ffffffffffffffffffffffffffffffffffffffff1673ffffffffffffffffffffffffffffffffffffffff1681526020019081526020016000206128a9856128bf565b915091508373ffffffffffffffffffffffffffffffffffffffff167fdec2bacdd2f05b59de34da9b523dff8be42e5e38e818c82fdb0bae774387a7248383604051612182929190613e7a565b60405180910390a250505b5b505050565b600082826040516020016121a8929190613f10565b60405160208183030381529060405280519060200120905092915050565b6000807f7fffffffffffffffffffffffffffffff5d576e7357a4501ddfe92f46681b20a08360001c11156122015760006003915091506122ca565b601b8560ff16141580156122195750601c8560ff1614155b1561222b5760006004915091506122ca565b6000600187878787604051600081526020016040526040516122509493929190613f47565b6020604051602081039080840390855afa158015612272573d6000803e3d6000fd5b505050602060405103519050600073ffffffffffffffffffffffffffffffffffffffff168173ffffffffffffffffffffffffffffffffffffffff1614156122c1576000600192509250506122ca565b80600092509250505b94509492505050565b600060048111156122e7576122e6613f8c565b5b8160048111156122fa576122f9613f8c565b5b1415612305576124a5565b6001600481111561231957612318613f8c565b5b81600481111561232c5761232b613f8c565b5b141561236d576040517f08c379a000000000000000000000000000000000000000000000000000000000815260040161236490614007565b60405180910390fd5b6002600481111561238157612380613f8c565b5b81600481111561239457612393613f8c565b5b14156123d5576040517f08c379a00000000000000000000000000000000000000000000000000000000081526004016123cc90614073565b60405180910390fd5b600360048111156123e9576123e8613f8c565b5b8160048111156123fc576123fb613f8c565b5b141561243d576040517f08c379a000000000000000000000000000000000000000000000000000000000815260040161243490614105565b60405180910390fd5b6004808111156124505761244f613f8c565b5b81600481111561246357612462613f8c565b5b14156124a4576040517f08c379a000000000000000000000000000000000000000000000000000000000815260040161249b90614197565b60405180910390fd5b5b50565b6001816000016000828254019250508190555050565b6124c9838383612b4d565b6124e46124d5846109f8565b6124de846109f8565b83611f9a565b505050565b6060600060028360026124fc91906141b7565b6125069190613442565b67ffffffffffffffff81111561251f5761251e614211565b5b6040519080825280601f01601f1916602001820160405280156125515781602001600182028036833780820191505090505b5090507f30000000000000000000000000000000000000000000000000000000000000008160008151811061258957612588613538565b5b60200101907effffffffffffffffffffffffffffffffffffffffffffffffffffffffffffff1916908160001a9053507f7800000000000000000000000000000000000000000000000000000000000000816001815181106125ed576125ec613538565b5b60200101907effffffffffffffffffffffffffffffffffffffffffffffffffffffffffffff1916908160001a9053506000600184600261262d91906141b7565b6126379190613442565b90505b60018111156126d7577f3031323334353637383961626364656600000000000000000000000000000000600f86166010811061267957612678613538565b5b1a60f81b8282815181106126905761268f613538565b5b60200101907effffffffffffffffffffffffffffffffffffffffffffffffffffffffffffff1916908160001a905350600485901c9450806126d090614240565b905061263a565b506000841461271b576040517f08c379a0000000000000000000000000000000000000000000000000000000008152600401612712906142b6565b60405180910390fd5b8091505092915050565b600073ffffffffffffffffffffffffffffffffffffffff168273ffffffffffffffffffffffffffffffffffffffff161415612795576040517f08c379a000000000000000000000000000000000000000000000000000000000815260040161278c90614322565b60405180910390fd5b6127a160008383611dfb565b80600260008282546127b39190613442565b92505081905550806000808473ffffffffffffffffffffffffffffffffffffffff1673ffffffffffffffffffffffffffffffffffffffff16815260200190815260200160002060008282546128089190613442565b925050819055508173ffffffffffffffffffffffffffffffffffffffff16600073ffffffffffffffffffffffffffffffffffffffff167fddf252ad1be2c89b69c2b068fc378daa952ba7f163c4a11628f55a4df523b3ef8360405161286d9190612e59565b60405180910390a361288160008383611e00565b5050565b60007bffffffffffffffffffffffffffffffffffffffffffffffffffffffff905090565b600081836128b79190613442565b905092915050565b6000806000858054905090506000811461292d57856001826128e19190613504565b815481106128f2576128f1613538565b5b9060005260206000200160000160049054906101000a90047bffffffffffffffffffffffffffffffffffffffffffffffffffffffff16612930565b60005b7bffffffffffffffffffffffffffffffffffffffffffffffffffffffff16925061295e83858763ffffffff16565b91506000811180156129b15750438660018361297a9190613504565b8154811061298b5761298a613538565b5b9060005260206000200160000160009054906101000a900463ffffffff1663ffffffff16145b15612a3e576129bf82612b52565b866001836129cd9190613504565b815481106129de576129dd613538565b5b9060005260206000200160000160046101000a8154817bffffffffffffffffffffffffffffffffffffffffffffffffffffffff02191690837bffffffffffffffffffffffffffffffffffffffffffffffffffffffff160217905550612b2e565b856040518060400160405280612a5343611cf7565b63ffffffff168152602001612a6785612b52565b7bffffffffffffffffffffffffffffffffffffffffffffffffffffffff168152509080600181540180825580915050600190039060005260206000200160009091909190915060008201518160000160006101000a81548163ffffffff021916908363ffffffff16021790555060208201518160000160046101000a8154817bffffffffffffffffffffffffffffffffffffffffffffffffffffffff02191690837bffffffffffffffffffffffffffffffffffffffffffffffffffffffff16021790555050505b50935093915050565b60008183612b459190613504565b905092915050565b505050565b60007bffffffffffffffffffffffffffffffffffffffffffffffffffffffff8016821115612bb5576040517f08c379a0000000000000000000000000000000000000000000000000000000008152600401612bac906143b4565b60405180910390fd5b819050919050565b6040518060400160405280600063ffffffff16815260200160007bffffffffffffffffffffffffffffffffffffffffffffffffffffffff1681525090565b600080fd5b60007fffffffff0000000000000000000000000000000000000000000000000000000082169050919050565b612c3581612c00565b8114612c4057600080fd5b50565b600081359050612c5281612c2c565b92915050565b600060208284031215612c6e57612c6d612bfb565b5b6000612c7c84828501612c43565b91505092915050565b60008115159050919050565b612c9a81612c85565b82525050565b6000602082019050612cb56000830184612c91565b92915050565b600081519050919050565b600082825260208201905092915050565b60005b83811015612cf5578082015181840152602081019050612cda565b83811115612d04576000848401525b50505050565b6000601f19601f8301169050919050565b6000612d2682612cbb565b612d308185612cc6565b9350612d40818560208601612cd7565b612d4981612d0a565b840191505092915050565b60006020820190508181036000830152612d6e8184612d1b565b905092915050565b600073ffffffffffffffffffffffffffffffffffffffff82169050919050565b6000612da182612d76565b9050919050565b612db181612d96565b8114612dbc57600080fd5b50565b600081359050612dce81612da8565b92915050565b6000819050919050565b612de781612dd4565b8114612df257600080fd5b50565b600081359050612e0481612dde565b92915050565b60008060408385031215612e2157612e20612bfb565b5b6000612e2f85828601612dbf565b9250506020612e4085828601612df5565b9150509250929050565b612e5381612dd4565b82525050565b6000602082019050612e6e6000830184612e4a565b92915050565b600080600060608486031215612e8d57612e8c612bfb565b5b6000612e9b86828701612dbf565b9350506020612eac86828701612dbf565b9250506040612ebd86828701612df5565b9150509250925092565b6000819050919050565b612eda81612ec7565b8114612ee557600080fd5b50565b600081359050612ef781612ed1565b92915050565b600060208284031215612f1357612f12612bfb565b5b6000612f2184828501612ee8565b91505092915050565b612f3381612ec7565b82525050565b6000602082019050612f4e6000830184612f2a565b92915050565b60008060408385031215612f6b57612f6a612bfb565b5b6000612f7985828601612ee8565b9250506020612f8a85828601612dbf565b9150509250929050565b600060ff82169050919050565b612faa81612f94565b82525050565b6000602082019050612fc56000830184612fa1565b92915050565b600060208284031215612fe157612fe0612bfb565b5b6000612fef84828501612dbf565b91505092915050565b61300181612d96565b82525050565b600060208201905061301c6000830184612ff8565b92915050565b600063ffffffff82169050919050565b61303b81613022565b82525050565b60006020820190506130566000830184613032565b92915050565b60006020828403121561307257613071612bfb565b5b600061308084828501612df5565b91505092915050565b61309281612f94565b811461309d57600080fd5b50565b6000813590506130af81613089565b92915050565b60008060008060008060c087890312156130d2576130d1612bfb565b5b60006130e089828a01612dbf565b96505060206130f189828a01612df5565b955050604061310289828a01612df5565b945050606061311389828a016130a0565b935050608061312489828a01612ee8565b92505060a061313589828a01612ee8565b9150509295509295509295565b600080600080600080600060e0888a03121561316157613160612bfb565b5b600061316f8a828b01612dbf565b97505060206131808a828b01612dbf565b96505060406131918a828b01612df5565b95505060606131a28a828b01612df5565b94505060806131b38a828b016130a0565b93505060a06131c48a828b01612ee8565b92505060c06131d58a828b01612ee8565b91505092959891949750929550565b600080604083850312156131fb576131fa612bfb565b5b600061320985828601612dbf565b925050602061321a85828601612dbf565b9150509250929050565b61322d81613022565b811461323857600080fd5b50565b60008135905061324a81613224565b92915050565b6000806040838503121561326757613266612bfb565b5b600061327585828601612dbf565b92505060206132868582860161323b565b9150509250929050565b61329981613022565b82525050565b60007bffffffffffffffffffffffffffffffffffffffffffffffffffffffff82169050919050565b6132d08161329f565b82525050565b6040820160008201516132ec6000850182613290565b5060208201516132ff60208501826132c7565b50505050565b600060408201905061331a60008301846132d6565b92915050565b7f4e487b7100000000000000000000000000000000000000000000000000000000600052602260045260246000fd5b6000600282049050600182168061336757607f821691505b6020821081141561337b5761337a613320565b5b50919050565b7f416363657373436f6e74726f6c3a2063616e206f6e6c792072656e6f756e636560008201527f20726f6c657320666f722073656c660000000000000000000000000000000000602082015250565b60006133dd602f83612cc6565b91506133e882613381565b604082019050919050565b6000602082019050818103600083015261340c816133d0565b9050919050565b7f4e487b7100000000000000000000000000000000000000000000000000000000600052601160045260246000fd5b600061344d82612dd4565b915061345883612dd4565b9250827fffffffffffffffffffffffffffffffffffffffffffffffffffffffffffffffff0382111561348d5761348c613413565b5b828201905092915050565b7f4552433230566f7465733a20626c6f636b206e6f7420796574206d696e656400600082015250565b60006134ce601f83612cc6565b91506134d982613498565b602082019050919050565b600060208201905081810360008301526134fd816134c1565b9050919050565b600061350f82612dd4565b915061351a83612dd4565b92508282101561352d5761352c613413565b5b828203905092915050565b7f4e487b7100000000000000000000000000000000000000000000000000000000600052603260045260246000fd5b7f45524332303a2064656372656173656420616c6c6f77616e63652062656c6f7760008201527f207a65726f000000000000000000000000000000000000000000000000000000602082015250565b60006135c3602583612cc6565b91506135ce82613567565b604082019050919050565b600060208201905081810360008301526135f2816135b6565b9050919050565b7f4552433230566f7465733a207369676e61747572652065787069726564000000600082015250565b600061362f601d83612cc6565b915061363a826135f9565b602082019050919050565b6000602082019050818103600083015261365e81613622565b9050919050565b600060808201905061367a6000830187612f2a565b6136876020830186612ff8565b6136946040830185612e4a565b6136a16060830184612e4a565b95945050505050565b7f4552433230566f7465733a20696e76616c6964206e6f6e636500000000000000600082015250565b60006136e0601983612cc6565b91506136eb826136aa565b602082019050919050565b6000602082019050818103600083015261370f816136d3565b9050919050565b7f45524332305065726d69743a206578706972656420646561646c696e65000000600082015250565b600061374c601d83612cc6565b915061375782613716565b602082019050919050565b6000602082019050818103600083015261377b8161373f565b9050919050565b600060c0820190506137976000830189612f2a565b6137a46020830188612ff8565b6137b16040830187612ff8565b6137be6060830186612e4a565b6137cb6080830185612e4a565b6137d860a0830184612e4a565b979650505050505050565b7f45524332305065726d69743a20696e76616c6964207369676e61747572650000600082015250565b6000613819601e83612cc6565b9150613824826137e3565b602082019050919050565b600060208201905081810360008301526138488161380c565b9050919050565b7f45524332303a20617070726f76652066726f6d20746865207a65726f2061646460008201527f7265737300000000000000000000000000000000000000000000000000000000602082015250565b60006138ab602483612cc6565b91506138b68261384f565b604082019050919050565b600060208201905081810360008301526138da8161389e565b9050919050565b7f45524332303a20617070726f766520746f20746865207a65726f20616464726560008201527f7373000000000000000000000000000000000000000000000000000000000000602082015250565b600061393d602283612cc6565b9150613948826138e1565b604082019050919050565b6000602082019050818103600083015261396c81613930565b9050919050565b7f45524332303a20696e73756666696369656e7420616c6c6f77616e6365000000600082015250565b60006139a9601d83612cc6565b91506139b482613973565b602082019050919050565b600060208201905081810360008301526139d88161399c565b9050919050565b7f45524332303a207472616e736665722066726f6d20746865207a65726f20616460008201527f6472657373000000000000000000000000000000000000000000000000000000602082015250565b6000613a3b602583612cc6565b9150613a46826139df565b604082019050919050565b60006020820190508181036000830152613a6a81613a2e565b9050919050565b7f45524332303a207472616e7366657220746f20746865207a65726f206164647260008201527f6573730000000000000000000000000000000000000000000000000000000000602082015250565b6000613acd602383612cc6565b9150613ad882613a71565b604082019050919050565b60006020820190508181036000830152613afc81613ac0565b9050919050565b7f45524332303a207472616e7366657220616d6f756e742065786365656473206260008201527f616c616e63650000000000000000000000000000000000000000000000000000602082015250565b6000613b5f602683612cc6565b9150613b6a82613b03565b604082019050919050565b60006020820190508181036000830152613b8e81613b52565b9050919050565b7f53616665436173743a2076616c756520646f65736e27742066697420696e203360008201527f3220626974730000000000000000000000000000000000000000000000000000602082015250565b6000613bf1602683612cc6565b9150613bfc82613b95565b604082019050919050565b60006020820190508181036000830152613c2081613be4565b9050919050565b600081905092915050565b7f416363657373436f6e74726f6c3a206163636f756e7420000000000000000000600082015250565b6000613c68601783613c27565b9150613c7382613c32565b601782019050919050565b6000613c8982612cbb565b613c938185613c27565b9350613ca3818560208601612cd7565b80840191505092915050565b7f206973206d697373696e6720726f6c6520000000000000000000000000000000600082015250565b6000613ce5601183613c27565b9150613cf082613caf565b601182019050919050565b6000613d0682613c5b565b9150613d128285613c7e565b9150613d1d82613cd8565b9150613d298284613c7e565b91508190509392505050565b600060a082019050613d4a6000830188612f2a565b613d576020830187612f2a565b613d646040830186612f2a565b613d716060830185612e4a565b613d7e6080830184612ff8565b9695505050505050565b7f4e487b7100000000000000000000000000000000000000000000000000000000600052601260045260246000fd5b6000613dc282612dd4565b9150613dcd83612dd4565b925082613ddd57613ddc613d88565b5b828204905092915050565b7f4552433230566f7465733a20746f74616c20737570706c79207269736b73206f60008201527f766572666c6f77696e6720766f74657300000000000000000000000000000000602082015250565b6000613e44603083612cc6565b9150613e4f82613de8565b604082019050919050565b60006020820190508181036000830152613e7381613e37565b9050919050565b6000604082019050613e8f6000830185612e4a565b613e9c6020830184612e4a565b9392505050565b7f1901000000000000000000000000000000000000000000000000000000000000600082015250565b6000613ed9600283613c27565b9150613ee482613ea3565b600282019050919050565b6000819050919050565b613f0a613f0582612ec7565b613eef565b82525050565b6000613f1b82613ecc565b9150613f278285613ef9565b602082019150613f378284613ef9565b6020820191508190509392505050565b6000608082019050613f5c6000830187612f2a565b613f696020830186612fa1565b613f766040830185612f2a565b613f836060830184612f2a565b95945050505050565b7f4e487b7100000000000000000000000000000000000000000000000000000000600052602160045260246000fd5b7f45434453413a20696e76616c6964207369676e61747572650000000000000000600082015250565b6000613ff1601883612cc6565b9150613ffc82613fbb565b602082019050919050565b6000602082019050818103600083015261402081613fe4565b9050919050565b7f45434453413a20696e76616c6964207369676e6174757265206c656e67746800600082015250565b600061405d601f83612cc6565b915061406882614027565b602082019050919050565b6000602082019050818103600083015261408c81614050565b9050919050565b7f45434453413a20696e76616c6964207369676e6174757265202773272076616c60008201527f7565000000000000000000000000000000000000000000000000000000000000602082015250565b60006140ef602283612cc6565b91506140fa82614093565b604082019050919050565b6000602082019050818103600083015261411e816140e2565b9050919050565b7f45434453413a20696e76616c6964207369676e6174757265202776272076616c60008201527f7565000000000000000000000000000000000000000000000000000000000000602082015250565b6000614181602283612cc6565b915061418c82614125565b604082019050919050565b600060208201905081810360008301526141b081614174565b9050919050565b60006141c282612dd4565b91506141cd83612dd4565b9250817fffffffffffffffffffffffffffffffffffffffffffffffffffffffffffffffff048311821515161561420657614205613413565b5b828202905092915050565b7f4e487b7100000000000000000000000000000000000000000000000000000000600052604160045260246000fd5b600061424b82612dd4565b9150600082141561425f5761425e613413565b5b600182039050919050565b7f537472696e67733a20686578206c656e67746820696e73756666696369656e74600082015250565b60006142a0602083612cc6565b91506142ab8261426a565b602082019050919050565b600060208201905081810360008301526142cf81614293565b9050919050565b7f45524332303a206d696e7420746f20746865207a65726f206164647265737300600082015250565b600061430c601f83612cc6565b9150614317826142d6565b602082019050919050565b6000602082019050818103600083015261433b816142ff565b9050919050565b7f53616665436173743a2076616c756520646f65736e27742066697420696e203260008201527f3234206269747300000000000000000000000000000000000000000000000000602082015250565b600061439e602783612cc6565b91506143a982614342565b604082019050919050565b600060208201905081810360008301526143cd81614391565b905091905056fea26469706673582212205b953dffa2c505f55bd9b6c2482d567a6eb682d16e5863764b88171585aea5a664736f6c63430008080033",
  "linkReferences": {},
  "deployedLinkReferences": {}
}