{
  "_format": "hh-sol-artifact-1",
  "contractName": "TokenizedBallot",
  "sourceName": "contracts/TokenizedBallot.sol",
  "abi": [
    {
      "inputs": [
        {
          "internalType": "bytes32[]",
          "name": "_proposalName",
          "type": "bytes32[]"
        },
        {
          "internalType": "address",
          "name": "_tokenContract",
          "type": "address"
        }
      ],
      "stateMutability": "nonpayable",
      "type": "constructor"
    },
    {
      "inputs": [
        {
          "internalType": "uint256",
          "name": "",
          "type": "uint256"
        }
      ],
      "name": "proposals",
      "outputs": [
        {
          "internalType": "bytes32",
          "name": "name",
          "type": "bytes32"
        },
        {
          "internalType": "uint256",
          "name": "voteCount",
          "type": "uint256"
        }
      ],
      "stateMutability": "view",
      "type": "function"
    },
    {
      "inputs": [],
      "name": "s_owner",
      "outputs": [
        {
          "internalType": "address",
          "name": "",
          "type": "address"
        }
      ],
      "stateMutability": "view",
      "type": "function"
    },
    {
      "inputs": [],
      "name": "s_referenceBlock",
      "outputs": [
        {
          "internalType": "uint256",
          "name": "",
          "type": "uint256"
        }
      ],
      "stateMutability": "view",
      "type": "function"
    },
    {
      "inputs": [],
      "name": "s_tokenContract",
      "outputs": [
        {
          "internalType": "contract ITokenizedVotes",
          "name": "",
          "type": "address"
        }
      ],
      "stateMutability": "view",
      "type": "function"
    },
    {
      "inputs": [
        {
          "internalType": "uint256",
          "name": "_referenceBlock",
          "type": "uint256"
        }
      ],
      "name": "setReferenceBlock",
      "outputs": [
        {
          "internalType": "uint256",
          "name": "",
          "type": "uint256"
        }
      ],
      "stateMutability": "nonpayable",
      "type": "function"
    },
    {
      "inputs": [
        {
          "internalType": "uint256",
          "name": "proposalIndex",
          "type": "uint256"
        },
        {
          "internalType": "uint256",
          "name": "amount",
          "type": "uint256"
        }
      ],
      "name": "vote",
      "outputs": [],
      "stateMutability": "nonpayable",
      "type": "function"
    },
    {
      "inputs": [
        {
          "internalType": "address",
          "name": "account",
          "type": "address"
        }
      ],
      "name": "votePower",
      "outputs": [
        {
          "internalType": "uint256",
          "name": "votePower_",
          "type": "uint256"
        }
      ],
      "stateMutability": "view",
      "type": "function"
    },
    {
      "inputs": [
        {
          "internalType": "address",
          "name": "",
          "type": "address"
        }
      ],
      "name": "votePowerSpent",
      "outputs": [
        {
          "internalType": "uint256",
          "name": "",
          "type": "uint256"
        }
      ],
      "stateMutability": "view",
      "type": "function"
    },
    {
      "inputs": [],
      "name": "winnerName",
      "outputs": [
        {
          "internalType": "bytes32",
          "name": "winnerName_",
          "type": "bytes32"
        }
      ],
      "stateMutability": "view",
      "type": "function"
    },
    {
      "inputs": [],
      "name": "winningProposal",
      "outputs": [
        {
          "internalType": "uint256",
          "name": "winningProposal_",
          "type": "uint256"
        }
      ],
      "stateMutability": "view",
      "type": "function"
    }
  ],
  "bytecode": "0x60806040523480156200001157600080fd5b5060405162000e6e38038062000e6e833981810160405281019062000037919062000382565b60005b8251811015620000ce5760036040518060400160405280858481518110620000675762000066620003e8565b5b6020026020010151815260200160008152509080600181540180825580915050600190039060005260206000209060020201600090919091909150600082015181600001556020820151816001015550508080620000c59062000450565b9150506200003a565b5080600260006101000a81548173ffffffffffffffffffffffffffffffffffffffff021916908373ffffffffffffffffffffffffffffffffffffffff16021790555033600160006101000a81548173ffffffffffffffffffffffffffffffffffffffff021916908373ffffffffffffffffffffffffffffffffffffffff16021790555050506200049e565b6000604051905090565b600080fd5b600080fd5b600080fd5b6000601f19601f8301169050919050565b7f4e487b7100000000000000000000000000000000000000000000000000000000600052604160045260246000fd5b620001bd8262000172565b810181811067ffffffffffffffff82111715620001df57620001de62000183565b5b80604052505050565b6000620001f462000159565b9050620002028282620001b2565b919050565b600067ffffffffffffffff82111562000225576200022462000183565b5b602082029050602081019050919050565b600080fd5b6000819050919050565b62000250816200023b565b81146200025c57600080fd5b50565b600081519050620002708162000245565b92915050565b60006200028d620002878462000207565b620001e8565b90508083825260208201905060208402830185811115620002b357620002b262000236565b5b835b81811015620002e05780620002cb88826200025f565b845260208401935050602081019050620002b5565b5050509392505050565b600082601f8301126200030257620003016200016d565b5b81516200031484826020860162000276565b91505092915050565b600073ffffffffffffffffffffffffffffffffffffffff82169050919050565b60006200034a826200031d565b9050919050565b6200035c816200033d565b81146200036857600080fd5b50565b6000815190506200037c8162000351565b92915050565b600080604083850312156200039c576200039b62000163565b5b600083015167ffffffffffffffff811115620003bd57620003bc62000168565b5b620003cb85828601620002ea565b9250506020620003de858286016200036b565b9150509250929050565b7f4e487b7100000000000000000000000000000000000000000000000000000000600052603260045260246000fd5b7f4e487b7100000000000000000000000000000000000000000000000000000000600052601160045260246000fd5b6000819050919050565b60006200045d8262000446565b91507fffffffffffffffffffffffffffffffffffffffffffffffffffffffffffffffff82141562000493576200049262000417565b5b600182019050919050565b6109c080620004ae6000396000f3fe608060405234801561001057600080fd5b506004361061009e5760003560e01c8063b384abef11610066578063b384abef14610170578063b7622e691461018c578063e2ba53f0146101aa578063e3978240146101c8578063e490e699146101e65761009e565b8063013cf08b146100a3578063609ff1bd146100d45780638dd768ba146100f25780639e90d0d9146101105780639f92e13214610140575b600080fd5b6100bd60048036038101906100b891906105cb565b610216565b6040516100cb929190610620565b60405180910390f35b6100dc61024a565b6040516100e99190610649565b60405180910390f35b6100fa6102d2565b6040516101079190610649565b60405180910390f35b61012a600480360381019061012591906106c2565b6102d8565b6040516101379190610649565b60405180910390f35b61015a600480360381019061015591906105cb565b6102f0565b6040516101679190610649565b60405180910390f35b61018a600480360381019061018591906106ef565b61035d565b005b61019461040e565b6040516101a1919061078e565b60405180910390f35b6101b2610434565b6040516101bf91906107a9565b60405180910390f35b6101d0610468565b6040516101dd91906107d3565b60405180910390f35b61020060048036038101906101fb91906106c2565b61048e565b60405161020d9190610649565b60405180910390f35b6003818154811061022657600080fd5b90600052602060002090600202016000915090508060000154908060010154905082565b6000806000905060005b6003805490508110156102cd578160038281548110610276576102756107ee565b5b90600052602060002090600202016001015411156102ba57600381815481106102a2576102a16107ee565b5b90600052602060002090600202016001015491508092505b80806102c59061084c565b915050610254565b505090565b60005481565b60046020528060005260406000206000915090505481565b6000600160009054906101000a900473ffffffffffffffffffffffffffffffffffffffff1673ffffffffffffffffffffffffffffffffffffffff163373ffffffffffffffffffffffffffffffffffffffff161461034c57600080fd5b816000819055506000549050919050565b60006103683361048e565b90508181111561037757600080fd5b81600460003373ffffffffffffffffffffffffffffffffffffffff1673ffffffffffffffffffffffffffffffffffffffff16815260200190815260200160002060008282546103c69190610895565b9250508190555081600384815481106103e2576103e16107ee565b5b906000526020600020906002020160010160008282546104029190610895565b92505081905550505050565b600260009054906101000a900473ffffffffffffffffffffffffffffffffffffffff1681565b6000600361044061024a565b81548110610451576104506107ee565b5b906000526020600020906002020160000154905090565b600160009054906101000a900473ffffffffffffffffffffffffffffffffffffffff1681565b6000600460003373ffffffffffffffffffffffffffffffffffffffff1673ffffffffffffffffffffffffffffffffffffffff16815260200190815260200160002054600260009054906101000a900473ffffffffffffffffffffffffffffffffffffffff1673ffffffffffffffffffffffffffffffffffffffff16633a46b1a8846000546040518363ffffffff1660e01b815260040161052f9291906108eb565b60206040518083038186803b15801561054757600080fd5b505afa15801561055b573d6000803e3d6000fd5b505050506040513d601f19601f8201168201806040525081019061057f9190610929565b6105899190610956565b9050919050565b600080fd5b6000819050919050565b6105a881610595565b81146105b357600080fd5b50565b6000813590506105c58161059f565b92915050565b6000602082840312156105e1576105e0610590565b5b60006105ef848285016105b6565b91505092915050565b6000819050919050565b61060b816105f8565b82525050565b61061a81610595565b82525050565b60006040820190506106356000830185610602565b6106426020830184610611565b9392505050565b600060208201905061065e6000830184610611565b92915050565b600073ffffffffffffffffffffffffffffffffffffffff82169050919050565b600061068f82610664565b9050919050565b61069f81610684565b81146106aa57600080fd5b50565b6000813590506106bc81610696565b92915050565b6000602082840312156106d8576106d7610590565b5b60006106e6848285016106ad565b91505092915050565b6000806040838503121561070657610705610590565b5b6000610714858286016105b6565b9250506020610725858286016105b6565b9150509250929050565b6000819050919050565b600061075461074f61074a84610664565b61072f565b610664565b9050919050565b600061076682610739565b9050919050565b60006107788261075b565b9050919050565b6107888161076d565b82525050565b60006020820190506107a3600083018461077f565b92915050565b60006020820190506107be6000830184610602565b92915050565b6107cd81610684565b82525050565b60006020820190506107e860008301846107c4565b92915050565b7f4e487b7100000000000000000000000000000000000000000000000000000000600052603260045260246000fd5b7f4e487b7100000000000000000000000000000000000000000000000000000000600052601160045260246000fd5b600061085782610595565b91507fffffffffffffffffffffffffffffffffffffffffffffffffffffffffffffffff82141561088a5761088961081d565b5b600182019050919050565b60006108a082610595565b91506108ab83610595565b9250827fffffffffffffffffffffffffffffffffffffffffffffffffffffffffffffffff038211156108e0576108df61081d565b5b828201905092915050565b600060408201905061090060008301856107c4565b61090d6020830184610611565b9392505050565b6000815190506109238161059f565b92915050565b60006020828403121561093f5761093e610590565b5b600061094d84828501610914565b91505092915050565b600061096182610595565b915061096c83610595565b92508282101561097f5761097e61081d565b5b82820390509291505056fea26469706673582212205d2d191e2958a05c8d1612af2549d7e7a1581e40cdd3a7727b5f2c85fe4d76ed64736f6c63430008080033",
  "linkReferences": {},
  "deployedLinkReferences": {}
}